{
	"contracts/fallback.sol": {
		"Caller": {
			"abi": [
				{
					"inputs": [],
					"name": "caller",
					"outputs": [],
					"stateMutability": "nonpayable",
					"type": "function"
				}
			],
			"devdoc": {
				"kind": "dev",
				"methods": {},
				"version": 1
			},
			"evm": {
				"assembly": "    /* \"contracts/fallback.sol\":211:402  contract Caller {... */\n  mstore(0x40, 0x80)\n  callvalue\n  dup1\n  iszero\n  tag_1\n  jumpi\n  revert(0x00, 0x00)\ntag_1:\n  pop\n  dataSize(sub_0)\n  dup1\n  dataOffset(sub_0)\n  0x00\n  codecopy\n  0x00\n  return\nstop\n\nsub_0: assembly {\n        /* \"contracts/fallback.sol\":211:402  contract Caller {... */\n      mstore(0x40, 0x80)\n      callvalue\n      dup1\n      iszero\n      tag_1\n      jumpi\n      revert(0x00, 0x00)\n    tag_1:\n      pop\n      jumpi(tag_2, lt(calldatasize, 0x04))\n      shr(0xe0, calldataload(0x00))\n      dup1\n      0xfc9c8d39\n      eq\n      tag_3\n      jumpi\n    tag_2:\n      revert(0x00, 0x00)\n        /* \"contracts/fallback.sol\":233:400  function caller() public {... */\n    tag_3:\n      tag_4\n      tag_5\n      jump\t// in\n    tag_4:\n      stop\n    tag_5:\n        /* \"contracts/fallback.sol\":268:277  Demo demo */\n      0x00\n        /* \"contracts/fallback.sol\":280:290  new Demo() */\n      mload(0x40)\n      tag_7\n      swap1\n      tag_8\n      jump\t// in\n    tag_7:\n      mload(0x40)\n      dup1\n      swap2\n      sub\n      swap1\n      0x00\n      create\n      dup1\n      iszero\n      dup1\n      iszero\n      tag_9\n      jumpi\n      returndatacopy(0x00, 0x00, returndatasize)\n      revert(0x00, returndatasize)\n    tag_9:\n      pop\n        /* \"contracts/fallback.sol\":268:290  Demo demo = new Demo() */\n      swap1\n      pop\n        /* \"contracts/fallback.sol\":308:312  demo */\n      dup1\n        /* \"contracts/fallback.sol\":300:318  address(demo).call */\n      0xffffffffffffffffffffffffffffffffffffffff\n      and\n        /* \"contracts/fallback.sol\":326:327  0 */\n      0x00\n        /* \"contracts/fallback.sol\":342:383  abi.encodeWithSignature(\"nonExistFunc()\") */\n      add(0x24, mload(0x40))\n      mload(0x40)\n      0x20\n      dup2\n      dup4\n      sub\n      sub\n      dup2\n      mstore\n      swap1\n      0x40\n      mstore\n      and(not(0xffffffffffffffffffffffffffffffffffffffffffffffffffffffff), 0xc1dfc41a00000000000000000000000000000000000000000000000000000000)\n      0x20\n      dup3\n      add\n      dup1\n      mload\n      0xffffffffffffffffffffffffffffffffffffffffffffffffffffffff\n      dup4\n      dup2\n      dup4\n      and\n      or\n      dup4\n      mstore\n      pop\n      pop\n      pop\n      pop\n        /* \"contracts/fallback.sol\":300:393  address(demo).call{value: 0}(... */\n      mload(0x40)\n      tag_10\n      swap2\n      swap1\n      tag_11\n      jump\t// in\n    tag_10:\n      0x00\n      mload(0x40)\n      dup1\n      dup4\n      sub\n      dup2\n      dup6\n      dup8\n      gas\n      call\n      swap3\n      pop\n      pop\n      pop\n      returndatasize\n      dup1\n      0x00\n      dup2\n      eq\n      tag_14\n      jumpi\n      mload(0x40)\n      swap2\n      pop\n      and(add(returndatasize, 0x3f), not(0x1f))\n      dup3\n      add\n      0x40\n      mstore\n      returndatasize\n      dup3\n      mstore\n      returndatasize\n      0x00\n      0x20\n      dup5\n      add\n      returndatacopy\n      jump(tag_13)\n    tag_14:\n      0x60\n      swap2\n      pop\n    tag_13:\n      pop\n      pop\n      pop\n        /* \"contracts/fallback.sol\":258:400  {... */\n      pop\n        /* \"contracts/fallback.sol\":233:400  function caller() public {... */\n      jump\t// out\n    tag_8:\n      dataSize(sub_0)\n      dup1\n      dataOffset(sub_0)\n      dup4\n      codecopy\n      add\n      swap1\n      jump\t// out\n        /* \"#utility.yul\":7:105   */\n    tag_15:\n        /* \"#utility.yul\":58:64   */\n      0x00\n        /* \"#utility.yul\":92:97   */\n      dup2\n        /* \"#utility.yul\":86:98   */\n      mload\n        /* \"#utility.yul\":76:98   */\n      swap1\n      pop\n        /* \"#utility.yul\":7:105   */\n      swap2\n      swap1\n      pop\n      jump\t// out\n        /* \"#utility.yul\":111:258   */\n    tag_16:\n        /* \"#utility.yul\":212:223   */\n      0x00\n        /* \"#utility.yul\":249:252   */\n      dup2\n        /* \"#utility.yul\":234:252   */\n      swap1\n      pop\n        /* \"#utility.yul\":111:258   */\n      swap3\n      swap2\n      pop\n      pop\n      jump\t// out\n        /* \"#utility.yul\":264:403   */\n    tag_17:\n        /* \"#utility.yul\":353:359   */\n      dup3\n        /* \"#utility.yul\":348:351   */\n      dup2\n        /* \"#utility.yul\":343:346   */\n      dup4\n        /* \"#utility.yul\":337:360   */\n      mcopy\n        /* \"#utility.yul\":394:395   */\n      0x00\n        /* \"#utility.yul\":385:391   */\n      dup4\n        /* \"#utility.yul\":380:383   */\n      dup4\n        /* \"#utility.yul\":376:392   */\n      add\n        /* \"#utility.yul\":369:396   */\n      mstore\n        /* \"#utility.yul\":264:403   */\n      pop\n      pop\n      pop\n      jump\t// out\n        /* \"#utility.yul\":409:795   */\n    tag_18:\n        /* \"#utility.yul\":513:516   */\n      0x00\n        /* \"#utility.yul\":541:579   */\n      tag_24\n        /* \"#utility.yul\":573:578   */\n      dup3\n        /* \"#utility.yul\":541:579   */\n      tag_15\n      jump\t// in\n    tag_24:\n        /* \"#utility.yul\":595:683   */\n      tag_25\n        /* \"#utility.yul\":676:682   */\n      dup2\n        /* \"#utility.yul\":671:674   */\n      dup6\n        /* \"#utility.yul\":595:683   */\n      tag_16\n      jump\t// in\n    tag_25:\n        /* \"#utility.yul\":588:683   */\n      swap4\n      pop\n        /* \"#utility.yul\":692:757   */\n      tag_26\n        /* \"#utility.yul\":750:756   */\n      dup2\n        /* \"#utility.yul\":745:748   */\n      dup6\n        /* \"#utility.yul\":738:742   */\n      0x20\n        /* \"#utility.yul\":731:736   */\n      dup7\n        /* \"#utility.yul\":727:743   */\n      add\n        /* \"#utility.yul\":692:757   */\n      tag_17\n      jump\t// in\n    tag_26:\n        /* \"#utility.yul\":782:788   */\n      dup1\n        /* \"#utility.yul\":777:780   */\n      dup5\n        /* \"#utility.yul\":773:789   */\n      add\n        /* \"#utility.yul\":766:789   */\n      swap2\n      pop\n        /* \"#utility.yul\":517:795   */\n      pop\n        /* \"#utility.yul\":409:795   */\n      swap3\n      swap2\n      pop\n      pop\n      jump\t// out\n        /* \"#utility.yul\":801:1072   */\n    tag_11:\n        /* \"#utility.yul\":931:934   */\n      0x00\n        /* \"#utility.yul\":953:1046   */\n      tag_28\n        /* \"#utility.yul\":1042:1045   */\n      dup3\n        /* \"#utility.yul\":1033:1039   */\n      dup5\n        /* \"#utility.yul\":953:1046   */\n      tag_18\n      jump\t// in\n    tag_28:\n        /* \"#utility.yul\":946:1046   */\n      swap2\n      pop\n        /* \"#utility.yul\":1063:1066   */\n      dup2\n        /* \"#utility.yul\":1056:1066   */\n      swap1\n      pop\n        /* \"#utility.yul\":801:1072   */\n      swap3\n      swap2\n      pop\n      pop\n      jump\t// out\n    stop\n\n    sub_0: assembly {\n            /* \"contracts/fallback.sol\":57:210  contract Demo {... */\n          mstore(0x40, 0x80)\n          callvalue\n          dup1\n          iszero\n          tag_1\n          jumpi\n          revert(0x00, 0x00)\n        tag_1:\n          pop\n          dataSize(sub_0)\n          dup1\n          dataOffset(sub_0)\n          0x00\n          codecopy\n          0x00\n          return\n        stop\n\n        sub_0: assembly {\n                /* \"contracts/fallback.sol\":57:210  contract Demo {... */\n              mstore(0x40, 0x80)\n              jumpi(tag_1, lt(calldatasize, 0x04))\n              shr(0xe0, calldataload(0x00))\n              dup1\n              0x0dbe671f\n              eq\n              tag_3\n              jumpi\n              jump(tag_2)\n            tag_1:\n              jumpi(tag_2, calldatasize)\n                /* \"contracts/fallback.sol\":198:201  100 */\n              0x64\n                /* \"contracts/fallback.sol\":193:194  a */\n              0x00\n              0x00\n                /* \"contracts/fallback.sol\":193:201  a += 100 */\n              dup3\n              dup3\n              sload\n              tag_6\n              swap2\n              swap1\n              tag_7\n              jump\t// in\n            tag_6:\n              swap3\n              pop\n              pop\n              dup2\n              swap1\n              sstore\n              stop\n                /* \"contracts/fallback.sol\":57:210  contract Demo {... */\n            tag_2:\n                /* \"contracts/fallback.sol\":139:144  10000 */\n              0x2710\n                /* \"contracts/fallback.sol\":134:135  a */\n              0x00\n              0x00\n                /* \"contracts/fallback.sol\":134:144  a += 10000 */\n              dup3\n              dup3\n              sload\n              tag_10\n              swap2\n              swap1\n              tag_7\n              jump\t// in\n            tag_10:\n              swap3\n              pop\n              pop\n              dup2\n              swap1\n              sstore\n              stop\n                /* \"contracts/fallback.sol\":77:90  uint public a */\n            tag_3:\n              callvalue\n              dup1\n              iszero\n              tag_11\n              jumpi\n              revert(0x00, 0x00)\n            tag_11:\n              pop\n              tag_12\n              tag_13\n              jump\t// in\n            tag_12:\n              mload(0x40)\n              tag_14\n              swap2\n              swap1\n              tag_15\n              jump\t// in\n            tag_14:\n              mload(0x40)\n              dup1\n              swap2\n              sub\n              swap1\n              return\n            tag_13:\n              sload(0x00)\n              dup2\n              jump\t// out\n                /* \"#utility.yul\":7:84   */\n            tag_16:\n                /* \"#utility.yul\":44:51   */\n              0x00\n                /* \"#utility.yul\":73:78   */\n              dup2\n                /* \"#utility.yul\":62:78   */\n              swap1\n              pop\n                /* \"#utility.yul\":7:84   */\n              swap2\n              swap1\n              pop\n              jump\t// out\n                /* \"#utility.yul\":90:270   */\n            tag_17:\n                /* \"#utility.yul\":138:215   */\n              0x4e487b7100000000000000000000000000000000000000000000000000000000\n                /* \"#utility.yul\":135:136   */\n              0x00\n                /* \"#utility.yul\":128:216   */\n              mstore\n                /* \"#utility.yul\":235:239   */\n              0x11\n                /* \"#utility.yul\":232:233   */\n              0x04\n                /* \"#utility.yul\":225:240   */\n              mstore\n                /* \"#utility.yul\":259:263   */\n              0x24\n                /* \"#utility.yul\":256:257   */\n              0x00\n                /* \"#utility.yul\":249:264   */\n              revert\n                /* \"#utility.yul\":276:467   */\n            tag_7:\n                /* \"#utility.yul\":316:319   */\n              0x00\n                /* \"#utility.yul\":335:355   */\n              tag_23\n                /* \"#utility.yul\":353:354   */\n              dup3\n                /* \"#utility.yul\":335:355   */\n              tag_16\n              jump\t// in\n            tag_23:\n                /* \"#utility.yul\":330:355   */\n              swap2\n              pop\n                /* \"#utility.yul\":369:389   */\n              tag_24\n                /* \"#utility.yul\":387:388   */\n              dup4\n                /* \"#utility.yul\":369:389   */\n              tag_16\n              jump\t// in\n            tag_24:\n                /* \"#utility.yul\":364:389   */\n              swap3\n              pop\n                /* \"#utility.yul\":412:413   */\n              dup3\n                /* \"#utility.yul\":409:410   */\n              dup3\n                /* \"#utility.yul\":405:414   */\n              add\n                /* \"#utility.yul\":398:414   */\n              swap1\n              pop\n                /* \"#utility.yul\":433:436   */\n              dup1\n                /* \"#utility.yul\":430:431   */\n              dup3\n                /* \"#utility.yul\":427:437   */\n              gt\n                /* \"#utility.yul\":424:460   */\n              iszero\n              tag_25\n              jumpi\n                /* \"#utility.yul\":440:458   */\n              tag_26\n              tag_17\n              jump\t// in\n            tag_26:\n                /* \"#utility.yul\":424:460   */\n            tag_25:\n                /* \"#utility.yul\":276:467   */\n              swap3\n              swap2\n              pop\n              pop\n              jump\t// out\n                /* \"#utility.yul\":473:591   */\n            tag_18:\n                /* \"#utility.yul\":560:584   */\n              tag_28\n                /* \"#utility.yul\":578:583   */\n              dup2\n                /* \"#utility.yul\":560:584   */\n              tag_16\n              jump\t// in\n            tag_28:\n                /* \"#utility.yul\":555:558   */\n              dup3\n                /* \"#utility.yul\":548:585   */\n              mstore\n                /* \"#utility.yul\":473:591   */\n              pop\n              pop\n              jump\t// out\n                /* \"#utility.yul\":597:819   */\n            tag_15:\n                /* \"#utility.yul\":690:694   */\n              0x00\n                /* \"#utility.yul\":728:730   */\n              0x20\n                /* \"#utility.yul\":717:726   */\n              dup3\n                /* \"#utility.yul\":713:731   */\n              add\n                /* \"#utility.yul\":705:731   */\n              swap1\n              pop\n                /* \"#utility.yul\":741:812   */\n              tag_30\n                /* \"#utility.yul\":809:810   */\n              0x00\n                /* \"#utility.yul\":798:807   */\n              dup4\n                /* \"#utility.yul\":794:811   */\n              add\n                /* \"#utility.yul\":785:791   */\n              dup5\n                /* \"#utility.yul\":741:812   */\n              tag_18\n              jump\t// in\n            tag_30:\n                /* \"#utility.yul\":597:819   */\n              swap3\n              swap2\n              pop\n              pop\n              jump\t// out\n\n            auxdata: 0xa264697066735822122095a52c245db655bed0286791ae8eb0639a363d4e616d61fc23ee93dbe853831564736f6c634300081f0033\n        }\n    }\n\n    auxdata: 0xa26469706673582212205081dd17e575f44c76a895219867c140d1a65fb5912abbe8f1726669ab0d69d364736f6c634300081f0033\n}\n",
				"bytecode": {
					"linkReferences": {},
					"object": "6080604052348015600e575f5ffd5b506103638061001c5f395ff3fe608060405234801561000f575f5ffd5b5060043610610029575f3560e01c8063fc9c8d391461002d575b5f5ffd5b610035610037565b005b5f6040516100449061014d565b604051809103905ff08015801561005d573d5f5f3e3d5ffd5b5090508073ffffffffffffffffffffffffffffffffffffffff165f6040516024016040516020818303038152906040527fc1dfc41a000000000000000000000000000000000000000000000000000000007bffffffffffffffffffffffffffffffffffffffffffffffffffffffff19166020820180517bffffffffffffffffffffffffffffffffffffffffffffffffffffffff838183161783525050505060405161010891906101ac565b5f6040518083038185875af1925050503d805f8114610142576040519150601f19603f3d011682016040523d82523d5f602084013e610147565b606091505b50505050565b61016b806101c383390190565b5f81519050919050565b5f81905092915050565b8281835e5f83830152505050565b5f6101868261015a565b6101908185610164565b93506101a081856020860161016e565b80840191505092915050565b5f6101b7828461017c565b91508190509291505056fe6080604052348015600e575f5ffd5b5061014f8061001c5f395ff3fe608060405260043610610021575f3560e01c80630dbe671f146100595761003f565b3661003f5760645f5f82825461003791906100be565b925050819055005b6127105f5f82825461005191906100be565b925050819055005b348015610064575f5ffd5b5061006d610083565b60405161007a9190610100565b60405180910390f35b5f5481565b5f819050919050565b7f4e487b71000000000000000000000000000000000000000000000000000000005f52601160045260245ffd5b5f6100c882610088565b91506100d383610088565b92508282019050808211156100eb576100ea610091565b5b92915050565b6100fa81610088565b82525050565b5f6020820190506101135f8301846100f1565b9291505056fea264697066735822122095a52c245db655bed0286791ae8eb0639a363d4e616d61fc23ee93dbe853831564736f6c634300081f0033a26469706673582212205081dd17e575f44c76a895219867c140d1a65fb5912abbe8f1726669ab0d69d364736f6c634300081f0033",
					"opcodes": "PUSH1 0x80 PUSH1 0x40 MSTORE CALLVALUE DUP1 ISZERO PUSH1 0xE JUMPI PUSH0 PUSH0 REVERT JUMPDEST POP PUSH2 0x363 DUP1 PUSH2 0x1C PUSH0 CODECOPY PUSH0 RETURN INVALID PUSH1 0x80 PUSH1 0x40 MSTORE CALLVALUE DUP1 ISZERO PUSH2 0xF JUMPI PUSH0 PUSH0 REVERT JUMPDEST POP PUSH1 0x4 CALLDATASIZE LT PUSH2 0x29 JUMPI PUSH0 CALLDATALOAD PUSH1 0xE0 SHR DUP1 PUSH4 0xFC9C8D39 EQ PUSH2 0x2D JUMPI JUMPDEST PUSH0 PUSH0 REVERT JUMPDEST PUSH2 0x35 PUSH2 0x37 JUMP JUMPDEST STOP JUMPDEST PUSH0 PUSH1 0x40 MLOAD PUSH2 0x44 SWAP1 PUSH2 0x14D JUMP JUMPDEST PUSH1 0x40 MLOAD DUP1 SWAP2 SUB SWAP1 PUSH0 CREATE DUP1 ISZERO DUP1 ISZERO PUSH2 0x5D JUMPI RETURNDATASIZE PUSH0 PUSH0 RETURNDATACOPY RETURNDATASIZE PUSH0 REVERT JUMPDEST POP SWAP1 POP DUP1 PUSH20 0xFFFFFFFFFFFFFFFFFFFFFFFFFFFFFFFFFFFFFFFF AND PUSH0 PUSH1 0x40 MLOAD PUSH1 0x24 ADD PUSH1 0x40 MLOAD PUSH1 0x20 DUP2 DUP4 SUB SUB DUP2 MSTORE SWAP1 PUSH1 0x40 MSTORE PUSH32 0xC1DFC41A00000000000000000000000000000000000000000000000000000000 PUSH28 0xFFFFFFFFFFFFFFFFFFFFFFFFFFFFFFFFFFFFFFFFFFFFFFFFFFFFFFFF NOT AND PUSH1 0x20 DUP3 ADD DUP1 MLOAD PUSH28 0xFFFFFFFFFFFFFFFFFFFFFFFFFFFFFFFFFFFFFFFFFFFFFFFFFFFFFFFF DUP4 DUP2 DUP4 AND OR DUP4 MSTORE POP POP POP POP PUSH1 0x40 MLOAD PUSH2 0x108 SWAP2 SWAP1 PUSH2 0x1AC JUMP JUMPDEST PUSH0 PUSH1 0x40 MLOAD DUP1 DUP4 SUB DUP2 DUP6 DUP8 GAS CALL SWAP3 POP POP POP RETURNDATASIZE DUP1 PUSH0 DUP2 EQ PUSH2 0x142 JUMPI PUSH1 0x40 MLOAD SWAP2 POP PUSH1 0x1F NOT PUSH1 0x3F RETURNDATASIZE ADD AND DUP3 ADD PUSH1 0x40 MSTORE RETURNDATASIZE DUP3 MSTORE RETURNDATASIZE PUSH0 PUSH1 0x20 DUP5 ADD RETURNDATACOPY PUSH2 0x147 JUMP JUMPDEST PUSH1 0x60 SWAP2 POP JUMPDEST POP POP POP POP JUMP JUMPDEST PUSH2 0x16B DUP1 PUSH2 0x1C3 DUP4 CODECOPY ADD SWAP1 JUMP JUMPDEST PUSH0 DUP2 MLOAD SWAP1 POP SWAP2 SWAP1 POP JUMP JUMPDEST PUSH0 DUP2 SWAP1 POP SWAP3 SWAP2 POP POP JUMP JUMPDEST DUP3 DUP2 DUP4 MCOPY PUSH0 DUP4 DUP4 ADD MSTORE POP POP POP JUMP JUMPDEST PUSH0 PUSH2 0x186 DUP3 PUSH2 0x15A JUMP JUMPDEST PUSH2 0x190 DUP2 DUP6 PUSH2 0x164 JUMP JUMPDEST SWAP4 POP PUSH2 0x1A0 DUP2 DUP6 PUSH1 0x20 DUP7 ADD PUSH2 0x16E JUMP JUMPDEST DUP1 DUP5 ADD SWAP2 POP POP SWAP3 SWAP2 POP POP JUMP JUMPDEST PUSH0 PUSH2 0x1B7 DUP3 DUP5 PUSH2 0x17C JUMP JUMPDEST SWAP2 POP DUP2 SWAP1 POP SWAP3 SWAP2 POP POP JUMP INVALID PUSH1 0x80 PUSH1 0x40 MSTORE CALLVALUE DUP1 ISZERO PUSH1 0xE JUMPI PUSH0 PUSH0 REVERT JUMPDEST POP PUSH2 0x14F DUP1 PUSH2 0x1C PUSH0 CODECOPY PUSH0 RETURN INVALID PUSH1 0x80 PUSH1 0x40 MSTORE PUSH1 0x4 CALLDATASIZE LT PUSH2 0x21 JUMPI PUSH0 CALLDATALOAD PUSH1 0xE0 SHR DUP1 PUSH4 0xDBE671F EQ PUSH2 0x59 JUMPI PUSH2 0x3F JUMP JUMPDEST CALLDATASIZE PUSH2 0x3F JUMPI PUSH1 0x64 PUSH0 PUSH0 DUP3 DUP3 SLOAD PUSH2 0x37 SWAP2 SWAP1 PUSH2 0xBE JUMP JUMPDEST SWAP3 POP POP DUP2 SWAP1 SSTORE STOP JUMPDEST PUSH2 0x2710 PUSH0 PUSH0 DUP3 DUP3 SLOAD PUSH2 0x51 SWAP2 SWAP1 PUSH2 0xBE JUMP JUMPDEST SWAP3 POP POP DUP2 SWAP1 SSTORE STOP JUMPDEST CALLVALUE DUP1 ISZERO PUSH2 0x64 JUMPI PUSH0 PUSH0 REVERT JUMPDEST POP PUSH2 0x6D PUSH2 0x83 JUMP JUMPDEST PUSH1 0x40 MLOAD PUSH2 0x7A SWAP2 SWAP1 PUSH2 0x100 JUMP JUMPDEST PUSH1 0x40 MLOAD DUP1 SWAP2 SUB SWAP1 RETURN JUMPDEST PUSH0 SLOAD DUP2 JUMP JUMPDEST PUSH0 DUP2 SWAP1 POP SWAP2 SWAP1 POP JUMP JUMPDEST PUSH32 0x4E487B7100000000000000000000000000000000000000000000000000000000 PUSH0 MSTORE PUSH1 0x11 PUSH1 0x4 MSTORE PUSH1 0x24 PUSH0 REVERT JUMPDEST PUSH0 PUSH2 0xC8 DUP3 PUSH2 0x88 JUMP JUMPDEST SWAP2 POP PUSH2 0xD3 DUP4 PUSH2 0x88 JUMP JUMPDEST SWAP3 POP DUP3 DUP3 ADD SWAP1 POP DUP1 DUP3 GT ISZERO PUSH2 0xEB JUMPI PUSH2 0xEA PUSH2 0x91 JUMP JUMPDEST JUMPDEST SWAP3 SWAP2 POP POP JUMP JUMPDEST PUSH2 0xFA DUP2 PUSH2 0x88 JUMP JUMPDEST DUP3 MSTORE POP POP JUMP JUMPDEST PUSH0 PUSH1 0x20 DUP3 ADD SWAP1 POP PUSH2 0x113 PUSH0 DUP4 ADD DUP5 PUSH2 0xF1 JUMP JUMPDEST SWAP3 SWAP2 POP POP JUMP INVALID LOG2 PUSH5 0x6970667358 0x22 SLT KECCAK256 SWAP6 0xA5 0x2C 0x24 TSTORE 0xB6 SSTORE 0xBE 0xD0 0x28 PUSH8 0x91AE8EB0639A363D 0x4E PUSH2 0x6D61 0xFC 0x23 RETURNCONTRACT 0x93 0xDB 0xE8 MSTORE8 DUP4 ISZERO PUSH5 0x736F6C6343 STOP ADDMOD 0x1F STOP CALLER LOG2 PUSH5 0x6970667358 0x22 SLT KECCAK256 POP DUP2 0xDD OR JUMPF 0x75F4 0x4C PUSH23 0xA895219867C140D1A65FB5912ABBE8F1726669AB0D69D3 PUSH5 0x736F6C6343 STOP ADDMOD 0x1F STOP CALLER "
				},
				"gasEstimates": {
					"creation": {
						"codeDepositCost": "173400",
						"executionCost": "218",
						"totalCost": "173618"
					},
					"external": {
						"caller()": "infinite"
					}
				},
				"methodIdentifiers": {
					"caller()": "fc9c8d39"
				}
			},
			"storageLayout": {
				"storage": [],
				"types": null
			},
			"userdoc": {
				"kind": "user",
				"methods": {},
				"version": 1
			}
		}
	}
}