{
	"data": {
		"bytecode": {
			"linkReferences": {},
			"object": "6080604052348015600e575f5ffd5b5061028f8061001c5f395ff3fe608060405234801561000f575f5ffd5b506004361061003f575f3560e01c806386d36d3214610043578063a46a6a521461004d578063fb8cbced14610057575b5f5ffd5b61004b610076565b005b610055610081565b005b61005f61008d565b60405161006d929190610224565b60405180910390f35b61007f5f61013b565b565b61008b600161013b565b565b6060805f6001818054806020026020016040519081016040528092919081815260200182805480156100dc57602002820191905f5260205f20905b8154815260200190600101908083116100c8575b505050505091508080548060200260200160405190810160405280929190818152602001828054801561012c57602002820191905f5260205f20905b815481526020019060010190808311610118575b50505050509050915091509091565b806017908060018154018082558091505060019003905f5260205f20015f909190919091505550565b5f81519050919050565b5f82825260208201905092915050565b5f819050602082019050919050565b5f819050919050565b61019f8161018d565b82525050565b5f6101b08383610196565b60208301905092915050565b5f602082019050919050565b5f6101d282610164565b6101dc818561016e565b93506101e78361017e565b805f5b838110156102175781516101fe88826101a5565b9750610209836101bc565b9250506001810190506101ea565b5085935050505092915050565b5f6040820190508181035f83015261023c81856101c8565b9050818103602083015261025081846101c8565b9050939250505056fea2646970667358221220cf5002f1b9e551b908fc78702582524c98c51798f47f3151ff018472b0fb589364736f6c634300081f0033",
			"opcodes": "PUSH1 0x80 PUSH1 0x40 MSTORE CALLVALUE DUP1 ISZERO PUSH1 0xE JUMPI PUSH0 PUSH0 REVERT JUMPDEST POP PUSH2 0x28F DUP1 PUSH2 0x1C PUSH0 CODECOPY PUSH0 RETURN INVALID PUSH1 0x80 PUSH1 0x40 MSTORE CALLVALUE DUP1 ISZERO PUSH2 0xF JUMPI PUSH0 PUSH0 REVERT JUMPDEST POP PUSH1 0x4 CALLDATASIZE LT PUSH2 0x3F JUMPI PUSH0 CALLDATALOAD PUSH1 0xE0 SHR DUP1 PUSH4 0x86D36D32 EQ PUSH2 0x43 JUMPI DUP1 PUSH4 0xA46A6A52 EQ PUSH2 0x4D JUMPI DUP1 PUSH4 0xFB8CBCED EQ PUSH2 0x57 JUMPI JUMPDEST PUSH0 PUSH0 REVERT JUMPDEST PUSH2 0x4B PUSH2 0x76 JUMP JUMPDEST STOP JUMPDEST PUSH2 0x55 PUSH2 0x81 JUMP JUMPDEST STOP JUMPDEST PUSH2 0x5F PUSH2 0x8D JUMP JUMPDEST PUSH1 0x40 MLOAD PUSH2 0x6D SWAP3 SWAP2 SWAP1 PUSH2 0x224 JUMP JUMPDEST PUSH1 0x40 MLOAD DUP1 SWAP2 SUB SWAP1 RETURN JUMPDEST PUSH2 0x7F PUSH0 PUSH2 0x13B JUMP JUMPDEST JUMP JUMPDEST PUSH2 0x8B PUSH1 0x1 PUSH2 0x13B JUMP JUMPDEST JUMP JUMPDEST PUSH1 0x60 DUP1 PUSH0 PUSH1 0x1 DUP2 DUP1 SLOAD DUP1 PUSH1 0x20 MUL PUSH1 0x20 ADD PUSH1 0x40 MLOAD SWAP1 DUP2 ADD PUSH1 0x40 MSTORE DUP1 SWAP3 SWAP2 SWAP1 DUP2 DUP2 MSTORE PUSH1 0x20 ADD DUP3 DUP1 SLOAD DUP1 ISZERO PUSH2 0xDC JUMPI PUSH1 0x20 MUL DUP3 ADD SWAP2 SWAP1 PUSH0 MSTORE PUSH1 0x20 PUSH0 KECCAK256 SWAP1 JUMPDEST DUP2 SLOAD DUP2 MSTORE PUSH1 0x20 ADD SWAP1 PUSH1 0x1 ADD SWAP1 DUP1 DUP4 GT PUSH2 0xC8 JUMPI JUMPDEST POP POP POP POP POP SWAP2 POP DUP1 DUP1 SLOAD DUP1 PUSH1 0x20 MUL PUSH1 0x20 ADD PUSH1 0x40 MLOAD SWAP1 DUP2 ADD PUSH1 0x40 MSTORE DUP1 SWAP3 SWAP2 SWAP1 DUP2 DUP2 MSTORE PUSH1 0x20 ADD DUP3 DUP1 SLOAD DUP1 ISZERO PUSH2 0x12C JUMPI PUSH1 0x20 MUL DUP3 ADD SWAP2 SWAP1 PUSH0 MSTORE PUSH1 0x20 PUSH0 KECCAK256 SWAP1 JUMPDEST DUP2 SLOAD DUP2 MSTORE PUSH1 0x20 ADD SWAP1 PUSH1 0x1 ADD SWAP1 DUP1 DUP4 GT PUSH2 0x118 JUMPI JUMPDEST POP POP POP POP POP SWAP1 POP SWAP2 POP SWAP2 POP SWAP1 SWAP2 JUMP JUMPDEST DUP1 PUSH1 0x17 SWAP1 DUP1 PUSH1 0x1 DUP2 SLOAD ADD DUP1 DUP3 SSTORE DUP1 SWAP2 POP POP PUSH1 0x1 SWAP1 SUB SWAP1 PUSH0 MSTORE PUSH1 0x20 PUSH0 KECCAK256 ADD PUSH0 SWAP1 SWAP2 SWAP1 SWAP2 SWAP1 SWAP2 POP SSTORE POP JUMP JUMPDEST PUSH0 DUP2 MLOAD SWAP1 POP SWAP2 SWAP1 POP JUMP JUMPDEST PUSH0 DUP3 DUP3 MSTORE PUSH1 0x20 DUP3 ADD SWAP1 POP SWAP3 SWAP2 POP POP JUMP JUMPDEST PUSH0 DUP2 SWAP1 POP PUSH1 0x20 DUP3 ADD SWAP1 POP SWAP2 SWAP1 POP JUMP JUMPDEST PUSH0 DUP2 SWAP1 POP SWAP2 SWAP1 POP JUMP JUMPDEST PUSH2 0x19F DUP2 PUSH2 0x18D JUMP JUMPDEST DUP3 MSTORE POP POP JUMP JUMPDEST PUSH0 PUSH2 0x1B0 DUP4 DUP4 PUSH2 0x196 JUMP JUMPDEST PUSH1 0x20 DUP4 ADD SWAP1 POP SWAP3 SWAP2 POP POP JUMP JUMPDEST PUSH0 PUSH1 0x20 DUP3 ADD SWAP1 POP SWAP2 SWAP1 POP JUMP JUMPDEST PUSH0 PUSH2 0x1D2 DUP3 PUSH2 0x164 JUMP JUMPDEST PUSH2 0x1DC DUP2 DUP6 PUSH2 0x16E JUMP JUMPDEST SWAP4 POP PUSH2 0x1E7 DUP4 PUSH2 0x17E JUMP JUMPDEST DUP1 PUSH0 JUMPDEST DUP4 DUP2 LT ISZERO PUSH2 0x217 JUMPI DUP2 MLOAD PUSH2 0x1FE DUP9 DUP3 PUSH2 0x1A5 JUMP JUMPDEST SWAP8 POP PUSH2 0x209 DUP4 PUSH2 0x1BC JUMP JUMPDEST SWAP3 POP POP PUSH1 0x1 DUP2 ADD SWAP1 POP PUSH2 0x1EA JUMP JUMPDEST POP DUP6 SWAP4 POP POP POP POP SWAP3 SWAP2 POP POP JUMP JUMPDEST PUSH0 PUSH1 0x40 DUP3 ADD SWAP1 POP DUP2 DUP2 SUB PUSH0 DUP4 ADD MSTORE PUSH2 0x23C DUP2 DUP6 PUSH2 0x1C8 JUMP JUMPDEST SWAP1 POP DUP2 DUP2 SUB PUSH1 0x20 DUP4 ADD MSTORE PUSH2 0x250 DUP2 DUP5 PUSH2 0x1C8 JUMP JUMPDEST SWAP1 POP SWAP4 SWAP3 POP POP POP JUMP INVALID LOG2 PUSH5 0x6970667358 0x22 SLT KECCAK256 0xCF POP MUL CALL 0xB9 JUMPF 0x51B9 ADDMOD 0xFC PUSH25 0x702582524C98C51798F47F3151FF018472B0FB589364736F6C PUSH4 0x4300081F STOP CALLER "
		},
		"gasEstimates": {
			"creation": {
				"codeDepositCost": "131000",
				"executionCost": "175",
				"totalCost": "131175"
			},
			"external": {
				"appendToArr1()": "46569",
				"appendToArr2()": "46592",
				"getArr()": "infinite"
			},
			"internal": {
				"append(uint256[] storage pointer)": "46434"
			}
		},
		"methodIdentifiers": {
			"appendToArr1()": "86d36d32",
			"appendToArr2()": "a46a6a52",
			"getArr()": "fb8cbced"
		}
	},
	"abi": [
		{
			"inputs": [],
			"name": "appendToArr1",
			"outputs": [],
			"stateMutability": "nonpayable",
			"type": "function"
		},
		{
			"inputs": [],
			"name": "appendToArr2",
			"outputs": [],
			"stateMutability": "nonpayable",
			"type": "function"
		},
		{
			"inputs": [],
			"name": "getArr",
			"outputs": [
				{
					"internalType": "uint256[]",
					"name": "",
					"type": "uint256[]"
				},
				{
					"internalType": "uint256[]",
					"name": "",
					"type": "uint256[]"
				}
			],
			"stateMutability": "view",
			"type": "function"
		}
	]
}